:020000040800F2
:10000000404A002459030008612F0008512F0008BE
:10001000592F00089912000841D70008000000007D
:100020000000000000000000000000008134000813
:10003000F914000800000000692F00088934000846
:1000400073030008730300087303000873030008B8
:1000500073030008730300087303000873030008A8
:100060007303000873030008730300087303000898
:100070007303000873030008730300087303000888
:100080007303000873030008730300087303000878
:100090007303000873030008730300087303000868
:1000A0007303000869350008730300087303000830
:1000B0007935000873030008730300087303000810
:1000C0007303000873030008730300087303000838
:1000D0007303000873030008730300087303000828
:1000E0007303000873030008000000007303000896
:1000F0007303000873030008730300087303000808
:1001000073030008730300087303000873030008F7
:1001100073030008730300087303000873030008E7
:1001200073030008730300087303000873030008D7
:1001300073030008730300087303000873030008C7
:1001400000000000000000000000000000000000AF
:1001500073030008730300087303000873030008A7
:100160007303000873030008730300087303000897
:100170007303000873030008730300080000000005
:100180007303000873030008730300087303000877
:100190007303000873030008730300087303000867
:1001A0007303000873030008730300087303000857
:1001B0007303000873030008730300087303000847
:1001C0007303000873030008730300087303000837
:1001D0007303000873030008730300087303000827
:1001E0007303000873030008730300087303000817
:1001F0007303000873030008730300087303000807
:1002000073030008730300087303000873030008F6
:1002100073030008730300087303000873030008E6
:100220007303000873030008730300080000000054
:100230007303000873030008000000007303000844
:1002400073030008730300087303000873030008B6
:1002500073030008730300087303000873030008A6
:100260007303000873030008730300087303000896
:100270007303000873030008730300080000000004
:1002800073030008730300087303000800000000F4
:10029000000000007303000800F002F800F04CF8C2
:1002A0000AA090E8000C82448344AAF10107DA45D1
:1002B00001D100F041F8AFF2090EBAE80F0013F0D7
:1002C000010F18BFFB1A43F001031847EC7C08002C
:1002D0000C7D0800103A24BF78C878C1FAD85207BC
:1002E00024BF30C830C144BF04680C6070470000B0
:1002F0000023002400250026103A28BF78C1FBD82F
:10030000520728BF30C148BF0B607047662919F0FB
:10031000E4A0632900F01784002070471FB559F04E
:10032000CFF800F051FC04000020002159F0B2F891
:10033000E0601FBD10B510BD00F076FD1146FFF75F
:10034000EDFF44F04DFD00F094FD03B4FFF7F2FF24
:1003500003BCAFF30080000009488047094800470C
:10036000FEE7FEE7FEE7FEE7FEE7FEE7FEE7FEE765
:10037000FEE7FEE704480549054A064B70470000C2
:100380009934000899020008400A0024404A0024D9
:10039000402A0024402A0024704700000FB404497A
:1003A00010B503AA029800F0DBFB10BC5DF814FB4B
:1003B000140200240FB41CB5074B06AA7B446946FF
:1003C0000090059800F09DFB0020694600F0ACFB12
:1003D0001CBC5DF814FB00006907000070B5044602
:1003E00085690068C10601D5302600E02026C007D7
:1003F00007D070BDD4E9012130469047206A401CE7
:1004000020626D1EF6D570BD70B504468569007812
:10041000C00707D170BDD4E9012120209047206A90
:10042000401C20626D1EF6D570BD70B50C460546A9
:10043000012A05D02878800600D5EA69002302E069
:10044000012305E05B1C934202D2E05C0028F9D155
:10045000A869E618C01AA861286A184428622846C4
:10046000FFF7BCFF04E0D5E9012114F8010B904728
:10047000B442F8D32846FFF7C7FF70BD2DE9F04717
:100480004FF0000A89460446C0F820A02046E168E3
:100490008847002876D0252806D0D4E90121904746
:1004A000206A401C2062F1E7E16820460025884769
:1004B000C4F81CA006460027C4F818A02A2E09D0AC
:1004C000304658F0DFFF38B304EB8708303EC8F8F9
:1004D000186019E059F8041B204604EB870291616B
:1004E000E1688847012F064618D1E069002820DA24
:1004F00025F020051DE0D8F8180000EB800006EB81
:1005000040003038C8F818002046E16888470646A1
:1005100058F0B8FF0028EED1012F0AD02E2E08D1B6
:100520002046E16888477F1C0646022F45F02005DB
:10053000C4DBA069002803DA404245F00105A06150
:10054000E80701D025F01005B6B1A6F14100192841
:1005500002D8203645F400654A46314620462560DB
:100560004D46FFF7D3FE58B1012806D0ED1D25F00A
:10057000070000F1080989E704E005F1040985E7AF
:1005800030468AE7206ABDE8F087000010B50446CF
:1005900003E018F02DFC401C09D014F8010B0549AC
:1005A0000028F6D1BDE810400A2018F021BC4FF019
:1005B000FF3010BD1402002440EA0103024630B5AA
:1005C0009B0710D14FF0013400E008C208C91D1B81
:1005D0009D4315EAC41FF8D013F0FF0102F8011B78
:1005E0000DD01B0AF8E711F8013B002B02F8013B84
:1005F00005D011F8013B002B02F8013BF3D130BDCF
:1006000010B5431C02E010F8011B71B18107FAD14B
:100610004FF0013202C88C1A8C4314EAC211F9D08F
:10062000C01A0A0603D0C01E10BDC01A10BD0A04AD
:1006300001D0801E10BD0902FCD0401E10BD00007C
:1006400030B44FF0013C50F8042BCCFA52F451F87E
:10065000043BD51A20D1FCB950F8042BCCFA52F443
:1006600051F8043BD51A17D1B4B950F8042BCCFA81
:1006700052F451F8043BD51A0ED16CB950F8042B42
:10068000CCFA52F451F8043BD51A05D1002CDAD03B
:1006900030BC4FF00000704729BAB1FA81F111F077
:1006A0001801D1F120008440F2D1CA40CB4012F0B1
:1006B000FF0213F0FF0330BCD01A70477047704739
:1006C0007047704710B500F083FA006810BD10B590
:1006D000044600F07DFA046010BD2DE9FF4F0C4682
:1006E0001E464FF0FF378BB0D2E90001DDF8608085
:1006F0000A908A46C1F30A5505B93D4600210846CD
:100700004FF00000BAF1000F00F4400005DA00EBF2
:1007100080004FF4400101EA50004FEA9059B9F1CE
:10072000010F00DDB9460A9850EA4A000ED044F69F
:100730001050A5F2FF3545432F14B8F1000F1ED01D
:100740007542291E1EDDC9F100021CE0B8F1010F3F
:100750004FF0000001D0302103E0F24305E02154C6
:10076000401CB042FBDB30460022002121540B9993
:10077000C1F80880C1E900200FB0BDE8F08FBD1BB3
:100780006D1CDEE74A4600DA694206A800F0AAFAC4
:1007900006AB93E8070003AB83E8070050460A99CD
:1007A00057F005FF8DE80700A0F500501F380090B6
:1007B0000398002D0ADD42F21F014A460844002337
:1007C00003A90390684658F06FF909E0A0F50050BE
:1007D0004A461F38002303A90390684658F079F968
:1007E0008DE807000004000C03D04FF0FF304108F3
:1007F00000E01046B8F1000F03D000220092154629
:100800001EE0751E05D400F0E7F9303262556D1E0A
:10081000F9D5B3460122084302D000227F1C04E030
:100820002078302801D100227F1E002A099784D029
:100830001DE0112D07DA00F0CFF9303262556D1C42
:1008400050EA0102F5D1084302D00098C8B10EE089
:100850000021681E05E0235C625C63542254401E44
:10086000491C8142F7DBAB46A81B401E09900020C3
:1008700004F80B000B98099AC0F80880C0E9002B17
:100880007AE711264FF0000857E72DE9F04F884628
:100890000446D21D22F0070191B0D1E90001CDE953
:1008A0000A0158F04DFA02460B98C00F01D02D20D6
:1008B00007E02068810701D52B2002E0202101EA12
:1008C000C000032A099001D0072A05DB03464146F0
:1008D000204600F0C7F90BE12078800601D5E069D9
:1008E00000E00620B8F1650F814606D0B8F1660F2A
:1008F00018D0B8F1670F70D131E00020B9F1110FB5
:10090000009001DB112301E009F101030AAA01A90A
:100910000CA8FFF7E2FEDDE90C70002609F10105E5
:10092000834647E001204B4600904FF000470AAA5B
:1009300001A90CA8FFF7D1FEDDE90DB00C995D46C9
:10094000002610B909F101000D18B9EB050003D418
:10095000C0F1FF3609F10105A5EB09002BE0B9F163
:10096000010F01DA4FF001090020B9F1110F0090D9
:10097000484601DD112300E003460AAA01A90CA89C
:10098000FFF7ABFEDDE90C704D460026834620786C
:1009900000070AD4AB4500DA5D4601A8012D04DD4D
:1009A000411911F8011C302907D04F4502DA17F11F
:1009B000040F04DA012082460FE06D1EEEE7002FDF
:1009C00002DCED1B3E4403E0781CA84200DD7D1CE8
:1009D000B81B00F1010A4FF000472078000703D44C
:1009E000AA4501DB4FF0FF3A0021B7F1004F0DF1AE
:1009F00043088DF8431024D002202B23002F01DA66
:100A00007F422D230A21021EA0F1010000DC5FB10C
:100A100097FBF1FC97FBF1F201FB1C7C17460CF1F4
:100A2000300C08F801CDEEE7A8F101000370218831
:100A3000090501D5452100E06521A0F1010800F874
:100A4000011C09980FA9A1EB0807FF1D00B10120A7
:100A5000411901EBEA70A1693844081A401EA061EF
:100A60002078C00602D42046FFF7B8FC099828B1C8
:100A7000D4E901219047206A401C20622078C006FA
:100A800022D52046FFF7AAFC1EE0002E04DBB3456A
:100A900002DD01A8805D00E03020D4E9012190470B
:100AA000206A401C2062761CAAF101005FEA000A5D
:100AB0000AD100F089F8C0680168405CD4E90121DE
:100AC0009047206A401C2062281EA5F10105DCDC4D
:100AD00007E0D4E9012118F8010B9047206A401C77
:100AE0002062381EA7F10107F3DC2046FFF78CFCDB
:100AF000032011B041E6000001694A1C0261087838
:100B0000704700B58FB0CDE901310021059105494D
:100B10007944CDE9031011466846FFF7AFFC0FB0EA
:100B200000BD0000E5FFFFFF0A6802F8010B0A6044
:100B3000704710B5436913B1AFF3008001E0FFF7D0
:100B400074FC012010BD127800F124010A7000220B
:100B50004A700122EDE711684FF0FF32E9E700002B
:100B6000074B70B50D467B44FFF7CBFF0446284684
:100B700000F02AF910B14FF0FF3070BD204670BD73
:100B8000878201004FF000020429C0F0128010F0AB
:100B9000030C00F01F81CCF1040CBCF1020F18BF54
:100BA00000F8012BA8BF20F8022BA1EB0C0100F0EC
:100BB00011B95FEAC17C24BF00F8012B00F8012BBA
:100BC00048BF00F8012B7047004870479000002490
:100BD000004870477000002430B5B0F10A0271F18E
:100BE00000034FEA900E4EEA817EB0EB0E0061EBFF
:100BF00091014FEA101E4EEA017E10EB0E0041EB10
:100C000011114FEA102E4EEA016E10EB0E0041EB6F
:100C100011214FEA104E4EEA014E10EB0E0041EB4F
:100C20001141401841F100014FEAD00040EA417003
:100C30004FEAD1014FEA810444EA907410EB800539
:100C400044EB01046D1944EB0404521BA3414FF023
:100C5000000348BF0A3200D530BD401C41F10001FD
:100C600030BD00002DE9F0411F460446032601680F
:100C7000072A01F4006004DB08B116A505E016A5FB
:100C800003E008B115A500E015A521F010002060D3
:100C9000A069C01EA0610FB1401EA0612046FFF7F1
:100CA0009DFB4FB1D4E9012138469047206A401C92
:100CB0002062C01C206206E0206AFAE7D4E9012124
:100CC00015F8010B9047761EF8D22046FFF79CFBE3
:100CD000BDE8F0814E414E006E616E00494E460007
:100CE000696E66002DE9F047814616468AB03548A0
:100CF00078440DC88DE80D0032487844801C03AC60
:100D00000DC884E80D0041F69B300844372190FB64
:100D1000F1F290FBF1F5A5F1800501FB12041B3CFB
:100D200002D56442012000E00020DFF898A0804650
:100D30000027FA44AAF1BE0A0EE0E0070AD03246C4
:100D4000684607EB470101230AEB810157F0C1FE1A
:100D50008DE8070064107F1C002CEED1194F7F44F2
:100D6000AE3F19E0E80715D007EB04100DF1180AA3
:100D700090E80E008AE80E00C068F04201D1981990
:100D800008903246012306A903A857F0A2FE03AB40
:100D900083E807006D10641C002DE3D14FF00103C0
:100DA00032466946B8F1000F03A802D057F07CFE26
:100DB00001E057F08EFEC9E90001C9F808200AB029
:100DC000BDE8F087A8890500007B00F0800070472F
:100DD0004FF0000200B5134694469646203922BFD4
:100DE000A0E80C50A0E80C50B1F12001BFF4F7AF1F
:100DF000090728BFA0E80C5048BF0CC05DF804EB01
:100E0000890028BF40F8042B08BF704748BF20F86E
:100E1000022B11F0804F18BF00F8012B7047000023
:100E200000487047700000247546FFF7F9FFAE4692
:100E300005006946534620F00700854618B020B5E6
:100E4000FFF798FABDE820404FF000064FF000078A
:100E50004FF000084FF0000BAC46ACE8C009ACE81E
:100E6000C009ACE8C009ACE8C00921F007018D4613
:100E7000704710B50446AFF300802046BDE810402F
:100E8000FFF763BA53EA020C00F069802DE9F04BDA
:100E90004FF00006002B1FBFB3FA83F503FA05F4E9
:100EA00024FA05F65E4012BF1643B2FA82F502FA42
:100EB00005F4C5F120051EBF22FA05FC44EA0C0426
:100EC000203556EA044C4FEA144418BF641C4FF016
:100ED00000084FF00009904271EB030C39D3002950
:100EE00019BFB1FA81F701FA07F6B0FA80F700FAF4
:100EF00007F6C7F120071EBF20FA07FC46EA0C06DA
:100F00002037B6FBF4FCA7EB0507103F07F01F0BDB
:100F1000CBF120062CFA06F60CFA0BFB44BFB346C5
:100F20000026202FA4BF5E464FF0000B5BEA060CA4
:100F300008BF4FF0010B19EB0B0948EB0608ABFBA0
:100F4000027C06FB02CC0BFB03CCC01B71EB0C013B
:100F5000C1E70B46024641464846BDE8F08B13B553
:100F6000084318BF4FF0FF300146AFF30080BDE8E3
:100F70001C40704702F0FF0343EA032242EA0242A8
:100F8000FFF702BE02F0FF0343EA032242EA0242F5
:100F9000FFF720BF000000000169012929D00029C6
:100FA00040F0E680BFEE000A40F2080190ED011A21
:100FB000C2F20041B7EE002A31EE000A0A6840F2A0
:100FC0000C0190ED031AC2F2004180ED010A80EE9F
:100FD000011A0968521A31EE013A01EE102AB8EEF0
:100FE000C11AB4EE423AF1EE10FA35DA9FED732AE7
:100FF00086E0B7EE003A90ED010A40F2080140F2B7
:101000000C02C2F20041C2F2004230EE031A90ED2F
:10101000030A0B6811685A1A80ED011A81EE002A42
:1010200032EE024A02EE102AB8EEC22AB4EE434A69
:10103000F1EE10FA00F38780B7EEC43A9FED4E5BF5
:10104000B4EE453BF1EE10FA26DA9FED5B3A24EE62
:10105000033A23EE043A76E0B0EE004A9FED465B99
:1010600034EE434AB7EEC43AB4EE453BF1EE10FA23
:1010700006DA9FED513A24EE033A24EE033A3DE0BE
:101080009FED3F4BB4EE443BF1EE10FA10DA9FEDCA
:10109000484BB6EE085B27E09FED394BB4EE443B7E
:1010A000F1EE10FA10DA9FED424BB6EE085B40E02D
:1010B0009FED354BB4EE443BF1EE10FA10DA9FEDA4
:1010C0003A4BB6EE0E5B0FE09FED2F4BB4EE443B78
:1010D000F1EE10FA29DA9FED344BB6EE0E5B28E004
:1010E0009FED2B4B9FED2E5B33EE043B9FED2A4B88
:1010F00023EE044BA4EE035BB7EEC53B32EE432A6E
:1011000003EE101AB5EE400AF1EE10FAB8EEC33A4B
:10111000A1EE023ABCEEC31A11EE101A018027DCD0
:10112000012101610021416070479FED194B9FED46
:101130001C5B33EE043B9FED184B23EE044BA4EEF7
:10114000035BB7EEC53B04EE101AB4EE401AF1EEA5
:1011500010FAB8EEC44AA2EE034ABCEEC42A12EE5C
:10116000101A0180B8BF70470021016180ED010AAB
:10117000704700BF00BF00BF46175D74D145D73F21
:1011800046175D74D145E73F175D74D14517ED3FB4
:101190008C2EBAE8A28BEEBF0000000000401E407B
:1011A000000000000080EF3F2FBAE8A28B2EEABFBC
:1011B00074D145175D74E1BF0000F24000000000EB
:1011C00080B52DED028B40F2100040F20C01C2F20E
:1011D0000040C2F200419FED2D8A008891ED000A87
:1011E00040F20801B8EEC00AC2F2004102EE100A55
:1011F00091ED001AB8EE422AB8EEC11A32EE402A3A
:1012000031EE400A9FED201A82EE000A80EE011AAC
:10121000B5EE401AF1EE10FA18DBB1EEC10AB4EEE9
:10122000400AF1EE10FA26D6B5EE400AF1EE10FAB9
:101230000CDDB7EEC01AB0EE408A9FED112BB4EE74
:10124000421BF1EE10FAA8BF9FED118AB6EE000A1C
:1012500040F27020C2F20040012128EE000A90ED19
:10126000031A016120EE010AB6EEC00A80ED010A00
:10127000BDEC028B80BDB0EE410A58F0BFF8D3E759
:101280009A9999999999D93F0000F240000000007D
:10129000CDCCCC3E00000000FEE7000000000000C6
:1012A000B0B52DED048B04460069012829D0002833
:1012B00040F0AE80BFEE000A94ED011A40F2080043
:1012C00040F20C05C2F20040C2F2004531EE002AA5
:1012D00094ED031A01682868091AB7EE009A82EEA5
:1012E000011A03EE101A84ED012A31EE011AB8EE4C
:1012F000C38AB4EE491AF1EE10FA34DA9FED4B0AC4
:101300004FE0B7EE000A94ED011A40F2080040F2F7
:101310000C05C2F20040C2F2004531EE003A94EDF5
:10132000032A01682868091A84ED013A83EE021A3B
:1013300004EE101A31EE011AB8EEC48AB4EE401A67
:10134000F1EE10FA50DCBFEE000A31EE000AB7EE03
:10135000001AA0EE401AB5EE401AF1EE10FA37DA94
:101360009FED320A40E0B0EE003A33EE411A31EE22
:10137000000AB0EE491AA0EE401AB5EE401AF1EE9E
:1013800010FA02DA9FED290A09E0B1EEC10AB4EEC3
:10139000400AF1EE10FA3ED6286894ED012A39EEA3
:1013A000400A01EE100AB5EE402AF1EE10FAB8EE4E
:1013B000C11AA8EE001ABCEEC10A10EE100A208075
:1013C00026DC0120206100206060BDEC048BB0BDF4
:1013D000B1EEC10AB4EE400AF1EE10FA20D6286848
:1013E00094ED013A94ED032A01EE100AB4EE423A6C
:1013F000F1EE10FAB8EEC11AA8EE001ABCEEC10A5E
:1014000010EE100A208003DB0020206184ED012A09
:10141000BDEC048BB0BDB0EE410A57F0EFFFBBE767
:10142000B0EE410A57F0EAFFD9E700BF0000000024
:1014300080B52DED048B40F2100040F20C01C2F299
:101440000040C2F20041B7EE008A9FED2A9A008860
:1014500091ED000A40F20801B8EEC00AC2F2004164
:1014600002EE100A91ED001AB8EE422AB8EEC11A47
:1014700032EE402A31EE400A82EE001AB0EE480AFF
:10148000A1EE410AB0EE491AB5EE400AF1EE10FAAB
:1014900006DBB1EEC01AB4EE411AF1EE10FA24D612
:1014A00038EE410AB5EE400AF1EE10FA08DDB0EE72
:1014B000409AB4EE480AF1EE10FA01DBB0EE489A19
:1014C000B6EE000A40F2A820C2F20040012129EE47
:1014D000000A90ED031A016120EE010AB6EEC00A7F
:1014E00080ED010ABDEC048B80BD57F087FFB0EEA4
:1014F000401AD5E70000000070470000000000001F
:1015000047F6E36472B6C0F6080400BF2046FFF752
:101510003DF8FBE70000000070B515460C46064696
:1015200006F08EFA06F08CFABA2009F079FA012852
:1015300007D1300A09F074FA012802D1F0B209F09B
:101540006FFA06F07DFABB2009F06AFA01280CD187
:10155000013D00BF601E18BF012002F015F8013CDC
:1015600005F8010FF6D107F0AFFCBDE8704007F0B9
:10157000ABBC0000000000002DE9F04F85B00D6805
:101580000290002D00F0E680029842F2004300F144
:1015900026428E4602F1FF72C5F602030A219842E6
:1015A0004FEAB2234FF0000408BF0921092B4FF086
:1015B000000738BF194601264FF000080091CDF80A
:1015C0000CE00DE0DEF8005008F1010835FA06F0F5
:1015D00006F1010607F1040704F1020400F0BA80E5
:1015E000A6F1010A012000FA0AF315EA0309E9D07D
:1015F000DEF804B00BF003056A1E012A22D8029817
:101600004FEA4801D0F808C00191032101FA04F221
:1016100003992CEA020CD1F80CE00EFA04F1DDF883
:101620000CE041EA0C01816041686FEA020CCBF3E7
:10163000001299430346019802FA0AF211435960D5
:101640000CE000BF0320032D00FA04F0029B6FEAB8
:10165000000C204602D12046032526E0D968DEF89A
:10166000082001EA0C018240022D41EA0201D96002
:101670001BD102466FF0030000EA5A010F20194403
:1016800007F01C0300FA03F51046D1F820E0039A96
:101690002EEA0505DDF80CE012699A40029B2A4308
:1016A0000A62DEF804B00BF00305196805FA00F0D1
:1016B00001EA0C011BF4403F40EA010018603FF4CE
:1016C00081AF44F2F44140F20845C5F60201C5F687
:1016D00000050F23086840F002000860086800F069
:1016E000020004902AF00300049907F00C0142590B
:1016F0008B409A43009B03FA01F1114341514FF093
:10170000B0452868DEF8041040EA0902CB0258BF51
:1017100020EA09028B022A6040F20405C5F60005A2
:10172000286840EA090258BF20EA09028B032A60B0
:10173000D5F8800040EA090258BF20EA0902C9032F
:10174000C5F88020E86F40EA090258BF20EA090284
:10175000EA6737E705B0BDE8F08F00000000000041
:1017600080B544F2384EC5F6020E5EF8103C5EF8C5
:10177000101CC1F3053C5EF80C1CBCF1000FDEF838
:10178000042014D0C1F30011C2F3CC02514300EE87
:10179000101A03F003010229B8EE400A0CD071B907
:1017A0005EF8381C89060DD49FED341A18E000212C
:1017B0008160C0E9001180BD9FED2F1A10E09FED00
:1017C0002D1A0DE05EF8381C49F20002C0F2D0324A
:1017D000C1F3C10122FA01F101EE101AB8EE411A6B
:1017E000DEF800109FED263A6FF35F2102EE101A2B
:1017F000DEF80010C1F34621B8EE422A00EE032ABB
:1018000000EE10CAB7EE003AB8EE400A81EE000AC8
:1018100032EE031A02EE101AB8EE422A20EE010A46
:1018200032EE031A80EE011ABCEEC11A80ED001AE6
:10183000DEF80010C1F3064101EE101AB8EE411AAD
:1018400031EE031A80EE011ABCEEC11A80ED011AC6
:10185000DEF80010C1F3066101EE101AB8EE411A6D
:1018600031EE031A80EE010ABCEEC00A10EE101A27
:10187000816080BD0024744A20BCBE4B0024744C9F
:10188000000000390000000080B544F2404EC5F66B
:10189000020E5EF8183C5EF8181CC1F3055C5EF899
:1018A000141CBCF1000FDEF8042014D0C1F3002199
:1018B000C2F3CC02514300EE101A03F003010229D7
:1018C000B8EE400A0CD071B95EF8401C89060DD400
:1018D0009FED341A18E000218160C0E9001180BD3D
:1018E0009FED2F1A10E09FED2D1A0DE05EF8401CC1
:1018F00049F20002C0F2D032C1F3C10122FA01F173
:1019000001EE101AB8EE411ADEF800109FED263AEB
:101910006FF35F2102EE101ADEF80010C1F34621CA
:10192000B8EE422A00EE032A00EE10CAB7EE003AE3
:10193000B8EE400A81EE000A32EE031A02EE101AE7
:10194000B8EE422A20EE010A32EE031A80EE011AA6
:10195000BCEEC11A80ED001ADEF80010C1F306419A
:1019600001EE101AB8EE411A31EE031A80EE011A98
:10197000BCEEC11A80ED011ADEF80010C1F3066159
:1019800001EE101AB8EE411A31EE031A80EE010A88
:10199000BCEEC00A10EE101A816080BD0024744AAB
:1019A00020BCBE4B0024744C000000390000000035
:1019B0002DE9F04381B00446C07844F22C4800077A
:1019C000C5F6020826D5A06E4FEA305103290AD881
:1019D000DFE801F0020B1119D8F8001041F40031D2
:1019E000C8F800100FE0012615E004F108000221FC
:1019F00001F0A6FB04E004F12800022101F070FCD4
:101A0000064640B9A06ED8F8241021F440110843CE
:101A1000C8F8240000266078C00701D135462AE0C6
:101A2000A06D042813D83546DFE800F003140B1A24
:101A30001A00D8F80000354640F40030C8F800001D
:101A40000EE004F12800002101F04AFC07E0012526
:101A5000012711E004F10800002101F071FB0546A7
:101A60002F464DB9D8F82400A16D20F007000025BD
:101A70000843C8F824003746607880072AD5E06D0F
:101A80004FEAB010042811D8DFE800F003130A1958
:101A90001900D8F8000040F40030C8F800000EE04B
:101AA00004F12800002101F01BFC07E001250126BC
:101AB00011E004F10800002101F042FB05462E462A
:101AC0004DB9D8F82400E16D20F4E07000250843FA
:101AD000C8F824003E46607840072DD5D4F8A80009
:101AE0004FEA7050042811D8DFE800F003140A1AF6
:101AF0001A00D8F8000040F40030C8F800000FE0E9
:101B000004F12800002101F0EBFB08E001254FF073
:101B1000010912E004F10800002101F011FB054663
:101B2000A94655B9D8F82C00D4F8A81020F46000C4
:101B300000250843C8F82C00B146607800072CD572
:101B4000D4F8AC004FEA3060042811D8DFE800F088
:101B500003130A191900D8F8000040F40030C8F83F
:101B600000000EE004F12800002101F0B9FB07E0BD
:101B70000125012712E004F10800002101F0E0FA3C
:101B800005462F4655B9D8F82C00D4F8AC1020F0F3
:101B9000E06000250843C8F82C004F46E078800735
:101BA00023D5E06C4FEA301003280AD8DFE800F0B4
:101BB00012020C12D8F8000040F40030C8F80000FF
:101BC00008E00125012611E004F10800022101F0DE
:101BD000B7FA05462E464DB9D8F82000E16C20F042
:101BE000300000250843C8F820003E466078C00653
:101BF0002AD5206E4FEA3030042811D8DFE800F0F3
:101C000003130A191900D8F8000040F40030C8F88E
:101C100000000EE004F12800002101F061FB07E064
:101C20000125012711E004F10800002101F088FAE4
:101C300005462F464DB9D8F82400216E20F4E04027
:101C400000250843C8F8240037466078800623D56D
:101C5000606E4FEA304005280AD8DFE800F0120332
:101C60000C12121204F10800012101F069FA07E0D8
:101C70000125012611E004F12800012101F030FBCB
:101C800005462E464DB9D8F82400616E20F4E020B8
:101C900000250843C8F824003E466078400625D554
:101CA000D4F8B0004FEA307005280AD8DFE800F019
:101CB00012030C12121204F10800012101F040FA83
:101CC00007E00125012712E004F12800012101F0BD
:101CD00007FB05462F4655B9D8F82C00D4F8B010AC
:101CE00020F0E04000250843C8F82C003746607813
:101CF00000061FD5206F90B1B0F1005F09D0B0F1A0
:101D0000805F29D1D8F8000040F40030C8F8000006
:101D100005E004F10800012101F012FA05462E4603
:101D20004DB9D8F82400216F20F040500025084319
:101D3000C8F824003E46E078C00724D0A06C0328F1
:101D40000DD8DFE800F015020F15D8F8000040F4B8
:101D50000030C8F800000BE001250126EBE7012563
:101D6000012111E004F10800022101F0E9F9054622
:101D700029464DB9D8F82000A16C20F003000025B9
:101D80000843C8F8200031462068420201D40E46BC
:101D900091E0D8F8D42342F48072C8F8D42340F2FA
:101DA0006C22C2F200421368D8F8D473FF051ED427
:101DB0001768FF1A642F7CD8D8F8D473FF0516D49F
:101DC0001768FF1A642F0FD8D8F8D473FF050ED404
:101DD0001768FF1A642F07D8D8F8D473FF0506D404
:101DE0001768FF1A642FDFD90326032563E0002D4F
:101DF0002E4660D1D8F84470D4F8B4305F4017F460
:101E0000407F11D0D8F84470D8F8446046F480364A
:101E1000C8F84460D8F8446027F4407726F4803648
:101E2000C8F84460C8F84470B3F5807F26D11768BD
:101E300041F2883C0325D8F84460B6071ED41668E2
:101E4000F61B6645D0D8D8F84460B60716D4166895
:101E5000F61B6645C8D8D8F84460B6070ED4166895
:101E6000F61B6645C0D8D8F84460B60706D4166895
:101E7000F61B66454FF00306DDD91CE04FF6CF7622
:101E800058F81C7CC0F2FF0603F4407227F47C571C
:101E900006EA13166FF31F33B2F5407F08BF3743CE
:101EA000002548F81C7CD8F844201A43C8F8442080
:101EB0006DE703250326C00723D0E06F4FEAF0004B
:101EC00005280AD8DFE800F012030C12121204F100
:101ED0000800012101F034F907E00127012511E094
:101EE00004F12800012101F0FBF905462F464DB908
:101EF000D8F82800E16F20F0380000250843C8F822
:101F0000280037462078800721D5A06F05280AD8F9
:101F1000DFE800F012030C12121204F10800012194
:101F200001F00EF907E00126012511E004F1280077
:101F3000012101F0D5F905462E464DB9D8F8280003
:101F4000A16F20F0070000250843C8F828003E468E
:101F50002078400724D5D4F8940005280AD8DFE873
:101F600000F013030D13131304F10800012101F015
:101F7000E7F808E04FF00109012512E004F128001C
:101F8000012101F0ADF90546A94655B9D8F82C0054
:101F9000D4F8941020F0070000250843C8F82C005E
:101FA000B1462078800625D5D4F890004FEA3070ED
:101FB00005280AD8DFE800F012030C12121204F10F
:101FC0000800002101F0BCF807E00127012512E01C
:101FD00004F12800022101F083F905462F4655B986
:101FE000D8F82800D4F8901020F0E04000250843ED
:101FF000C8F828004F462078400625D5D4F89C0024
:102000004FEAB02005280AD8DFE800F012030C12CE
:10201000121204F10800002101F092F807E00126F5
:10202000012512E004F12800022101F059F90546CA
:102030002E4655B9D8F82C00D4F89C1020F4E05066
:1020400000250843C8F82C003E462078000625D518
:10205000D4F8A0004FEA703005280AD8DFE800F075
:1020600012030C12121204F10800002101F068F8AA
:1020700007E00127012512E004F12800022101F008
:102080002FF905462F4655B9D8F82C00D4F8A010E2
:1020900020F4604000250843C8F82C00374620682B
:1020A000010704D4C1061BD4000332D454E0D4F891
:1020B0008400B0F5805F09D104F12800022101F00D
:1020C0000FF9002818BF0127D4F88400D8F8281089
:1020D00021F440510843C8F828002068C106E3D520
:1020E000D4F89800B0F5807F09D104F128000221CE
:1020F00001F0F6F8002818BF0127D4F89800D8F8A6
:102100002C1021F440710843C8F82C00206800030B
:1021100022D5D4F8A400B0F5003F11D0B0F5803F2F
:1021200008D0002840F0408104F10800002101F0AF
:1021300007F804E004F12800022101F0D1F8054677
:102140002E4655B9D8F82C00D4F8A41020F440300D
:1021500000250843C8F82C003E46A078400724D547
:10216000D4F88800B0F5401F13D0B0F5001F0AD096
:10217000B0F5801F40F01B81D8F8000040F400301B
:10218000C8F8000005E004F12800012101F0A8F8DA
:1021900005462F4655B9D8F82800D4F8881020F401
:1021A000401000250843C8F828003746A078C0072B
:1021B0001CD0206DB0F5803F07D0C8B9D8F800001A
:1021C00040F40030C8F8000005E004F108000221E6
:1021D00000F0B6FF05462E4665B9D8F82000216DFF
:1021E00020F4803000250843C8F820003E4601E076
:1021F000012601252168880003D460688A030CD475
:1022000050E004F12800022101F06AF8002818BF0C
:102210000126D4E900108A0344D5D4F880206FF059
:10222000010303EB3223022B0BD34FEA322343B1DA
:10223000012B40F0BF80D8F8003043F40033C8F8D9
:10224000003045B3CA0230D4CA0038D48A0241D41F
:102250004A0049D4CA0F56D109025ED4C10767D1DA
:10226000810770D441077AD4010700F18480C10648
:1022700000F18D80800607D504F12800022101F0CD
:102280002FF8002818BF0125002D18BF012528466A
:1022900001B0BDE8F083D8F8283023F440731A4326
:1022A000C8F828203546CA02CED5D8F82420636F56
:1022B00022F000421A43C8F82420CA00C6D558F8B4
:1022C0001C2CD4F8B83022F480421A4348F81C2C55
:1022D0008A02BDD5D8F82420E36E22F080721A431A
:1022E000C8F824204A00B5D558F81C2C22F4004226
:1022F00048F81C2CD4F8BC2058F81C3C1A4348F869
:102300001C2CCA0FA8D0D8F82020636D22F04052B0
:102310001A43C8F820200902A0D5D8F82810D4F80C
:102320008C2021F440011143C8F82810C10797D030
:1023300004F10800002100F003FF002818BF054643
:10234000606881078ED504F10800012100F0F8FED5
:10235000002818BF0546606841077FF585AF04F186
:102360000800022100F0ECFE002818BF0546606856
:1023700001077FF57CAF04F12800002100F0B0FFD9
:10238000002818BF05466068C1067FF573AF04F1E9
:102390002800012100F0A4FF002818BF054660684E
:1023A00080067FF571AF67E701260125D5E6012795
:1023B0000125FBE60125CA027FF546AF75E700005F
:1023C00044F20041C5F602010869C0F3C2000328C7
:1023D0000FD002282AD070BB0868800649F200009E
:1023E000C0F2D03058BF70470968C1F3C101C8407E
:1023F00070478A6A886AC0F3051CC86ABCF1000F7E
:102400004B6B1DD0C3F3CC0300F00100584302F026
:102410000302022A00EE100AB8EE400A12D0A2B956
:102420000868800614D49FED261A1EE047F6400087
:10243000C0F27D10704740F60010C0F23D007047BA
:10244000002070479FED1D1A0FE09FED1B1A0CE056
:10245000086849F20002C0F2D032C0F3C10022FA8B
:1024600000F001EE100AB8EE411A086B9FED153A24
:102470006FF35F2002EE100A086BC0F34620B8EE3F
:10248000422A013000EE032A00EE10CAB7EE003AED
:10249000B8EE400A81EE000A32EE031A20EE010A7D
:1024A00001EE100AB8EE411A80EE010ABCEEC00A35
:1024B00010EE100A704700BF0024744A20BCBE4BC7
:1024C0000024744C0000003900B310B582B090F8BD
:1024D0003D10002958D0022180F83D10016840F6D7
:1024E000FF32C4F2000291420A6811DCB1F1804F60
:1024F0001FD040F20043C4F20003994219D040F6C5
:102500000003C4F20003994213D016E00120704783
:1025100040F60043C4F2000399420AD040F200435F
:10252000C4F20103994204D00023C4F2010399428A
:1025300003D122F0700283681A434FF6FF7343F60B
:10254000FF7CC4F20003C4F2010C994210DD614526
:1025500047DD44F20003C4F20103994259D044F626
:102560000003C4F20103994253D044F200433FE018
:1025700040F2FF73C4F2000399423EDCB1F1804F98
:1025800047D040F2004340E002680021B2F1804FA2
:1025900080F83C1000F08F800021C4F201018A42D3
:1025A00099D144F2E841C5F602018A6842F001027D
:1025B0008A608968002201F00101019101994EF6BB
:1025C0000C51CEF2000109684EF21941CEF2000121
:1025D0000A704EF20011CEF200014FF000720A6054
:1025E00079E70023C4F20103994212D040F200437C
:1025F000C4F2010399420CD00FE040F60003C4F28C
:102600000003994205D040F60043C4F2000399420A
:1026100003D122F4407203691A4322F080028469D4
:102620006145D0F804E0C36842EA04020A60CB6264
:10263000C1F828E00EDD44F20002C4F2010291422A
:1026400013D044F60002C4F2010291420DD044F2CC
:10265000004206E00022C4F20102914205D040F29D
:102660000042C4F20102914201D142690A6301228F
:102670004A610B69DB0703D00B6923F001030B618F
:1026800080F8482080F83E2080F83F2080F84020E5
:1026900080F8412080F8422080F8432080F84420D0
:1026A00080F8452080F8462080F8472080F83D20BB
:1026B000002002B010BD44F2E842C5F602021368E1
:1026C00043F00103136012684EF2194302F0010255
:1026D0000092009A4EF60C52CEF20002CEF20003A7
:1026E0001268D9704EF20011CEF200014FF0805204
:1026F0000A60F0E60000000080B590F83C20012A56
:102700004FF0020200F0A18080F83D208822D0F82E
:1027100000C0CFF6CE72DCF808301A40CCF80820A2
:102720000B686F2B0CDDB3F1101F34DAB3F5005FCB
:1027300042DA702B00F08B80B3F5805F7ED0CEE064
:102740002F2B32DD4F2B3CDC302B6BD0402B40F05D
:10275000C680D1F804E0C968DCF82030DCF820201D
:1027600022F00102CCF82020DCF8182022F0F00240
:1027700042EA011123F00A02CCF8181042EA0E01D5
:10278000CCF820104FF68872DCF80810CFF6CF7224
:102790001140473150E02F21C0F210018B4237DC4D
:1027A000B3F1101F3ED0202138E0002B18BF102BB2
:1027B00038D0202B36D092E05CD0B3F5801F31D0DA
:1027C0008DE0502B69D0602B40F08980D1F804E077
:1027D000C968DCF82030DCF8202022F01002CCF8A8
:1027E0002020DCF8182022F4704242EA013123F064
:1027F000A002CCF8181042EA0E11CCF820104FF6C7
:102800008872DCF80810CFF6CF721140673113E000
:102810003021C0F210018B4204D04021C0F21001DF
:102820008B425CD14FF68872DCF80810CFF6CF727D
:102830001140194341F00701CCF808100022012192
:1028400080F83D10002180F83C10104680BDD1E991
:1028500001E3C968DCF8082043EA0E0322F47F4252
:1028600043EA01211143CCF80810DCF8081041F0CC
:102870007701E1E7D1E901E3C968DCF8082043EA20
:102880000E0322F47F4243EA01211143CCF80810E1
:10289000DCF8081041F48041CEE7D1F804E0C968C3
:1028A000DCF82030DCF8202022F00102CCF82020D7
:1028B000DCF8182022F0F00242EA011123F00A02AB
:1028C000CCF8181042EA0E01CCF820104FF68872AE
:1028D000DCF80810CFF6CF7211405731ACE7012277
:1028E000ADE70000000000002DE9F04F81B0044684
:1028F0000068C6680769B90708D516F0020105D057
:102900006FF002010161816900212177790708D503
:1029100016F0040105D06FF0040101618169002106
:102920002177390708D516F0080105D06FF00801A6
:102930000161C16900212177F90608D516F010015F
:1029400005D06FF010010161C16900212177F907FD
:1029500018BF16F0010122D106F0800117F4025FC2
:102960001EBF00296FF402520261FA0504D5002946
:102970001CBF6FF480710161790605D516F0400126
:102980001CBF6FF040010161B90605D516F02001AA
:102990001CBF6FF02001016101B0BDE8F08F002184
:1029A000C4F2010188426FF00101016103D0B0F16E
:1029B000804FD1D1B0E240F21C0040F21D01C2F2C2
:1029C0000040C2F2004140F2E02802780D78C2F2E5
:1029D00000480021AA4288F800100DD140F21E00E4
:1029E00040F22001C2F20040C2F200410288098890
:1029F0008A420DD1002135E0057047F68860C0F6A7
:102A00000800AA2155223F230095FDF7C7FC26E0C8
:102A10004FF4483248F21F53A2EB4122C5F2EB13A8
:102A200052FB03F200294FEAD21303EBD2724FF0AC
:102A3000AF0395B24FF0550208BF40F2FF15018079
:102A40000FF20050AA214FEA1529FDF7A7FCEAB2C0
:102A500047F68C60C0F608004946FDF79FFC01214F
:102A600088F8001040F2E120C2F20040007801280E
:102A700044D000285ED140F60C1040F2100CC2F297
:102A800000404425C2F2004CD0F808E0406EDEF869
:102A9000483001334FF0440308BF2423826C0132D5
:102AA00008BF2425BCF800205EF80330405940F2EE
:102AB00022059342C2F2004503D12A88904200F0D9
:102AC00026820029ACF80030288040F0208299B29C
:102AD00040F20C02C2F20042D2F800A08A455CDA51
:102AE00040F20802C2F20042D2F800A04FEA1A29CE
:102AF0008A45C4BF8A46C3F3072950E040F28C25BB
:102B0000C2F2004528466969884740F2100A2A88BF
:102B1000C2F2004ABAF80000824200F0F881A2F145
:102B2000A000AAF80020B0F5F07F1ED802EB42000A
:102B3000800894E040F20405C2F20045286841692B
:102B40008847286840F21005C2F2004502882888AC
:102B5000824200F0DC81A2F1A0002A80B0F5F07F73
:102B60000FD802EB4200800815E1B2F5F06F2BD8C8
:102B7000C2EB02104FF4F071A0F5165001EB60109B
:102B80006DE0B2F5F06F45D8C2EB02104FF4F07172
:102B9000A0F5165001EB6010FDE04FEA1A2981B252
:102BA00040F21402C2F2004215688D4216DA40F279
:102BB0001802C2F2004215684FEA152B8D42C4BFBD
:102BC0000D46C0F3072B0BE0B2F5206F2CD802EBBB
:102BD000C2004FF48761A0F587402EE04FEA152B25
:102BE00047F68C60AA21C0F608005522FDF7D6FBF7
:102BF0005FFA89F147F688605FFA8AF2C0F608004A
:102C00005FFA8BF3EDB20095FDF7C8FB012088F861
:102C100000007CE1B2F5206F12D802EBC2004FF445
:102C20008761A0F5874015E0B2F5706F15D802EB0B
:102C3000C2004FF4B461A0F5B44001EB10100EE0F7
:102C4000B2F5706F00F2A58002EBC2004FF4B461E0
:102C5000A0F5B44001EB10109DE04FF4F07098F82F
:102C6000001040F2220BC2F2004B0029ABF800002A
:102C700051D140F20C01C2F200410D6895420CDACC
:102C800040F20801C2F200410D684FEA152B95424F
:102C9000C4BF15464FEA122B01E04FEA152B81B253
:102CA00040F21402C2F20042D2F800A08A450DDAC6
:102CB00040F21802C2F20042D2F800A04FEA1A29EC
:102CC0008A45C4BF8A46C0F3072901E04FEA1A29A2
:102CD00047F68C60AA21C0F608005522FDF75EFB7E
:102CE0005FFA8BF147F68860EAB2C0F608005FFA37
:102CF00089F35FFA8AF50095FDF750FB40F2100A60
:102D000040F2220BC2F2004AC2F2004B012088F8C6
:102D10000000BAF8002040F60C1847F69565C2F29C
:102D20000048C0F608052946D8F84C0032F01CF9D6
:102D3000BBF80020D8F84800294632F015F9D8F839
:102D40000890BAF80010D9F8240088421ED0D9F8AB
:102D50002C508D42C8BF0D46D9F82810A942C8BFD3
:102D60000D46D9F830108D42B8BF0D46A8420DD09F
:102D700009F13C0000211AF00FFA4FF0FF30C9F8BA
:102D800048004846C9F8245039F0AEF8BBF80010A6
:102D900098E04FF4F07098F8001040F2220AC2F266
:102DA000004A0029AAF8000050D140F20C01C2F2FA
:102DB00000410D6895420CDA40F20801C2F2004170
:102DC0000D684FEA152B9542C4BF15464FEA122BEA
:102DD00001E04FEA152B81B240F21402C2F2004228
:102DE000D2F800A08A450DDA40F21802C2F2004281
:102DF000D2F800A04FEA1A298A45C4BF8A46C0F318
:102E0000072901E04FEA1A2947F68C60AA21C0F68B
:102E100008005522FDF7C2FA5FFA8BF147F6886089
:102E2000EAB2C0F608005FFA89F35FFA8AF5009506
:102E3000FDF7B4FA40F2100540F2220AC2F2004552
:102E4000C2F2004A012088F800002A8840F60C18D7
:102E500047F69569C2F20048C0F608094946D8F815
:102E60004C0032F081F8BAF80020D8F84800494602
:102E700032F07AF8D8F808902988D9F824008842E6
:102E80001ED0D9F82C508D42C8BF0D46D9F8281055
:102E9000A942C8BF0D46D9F830108D42B8BF0D46C3
:102EA000A8420DD009F13C0000211AF075F94FF04D
:102EB000FF30C9F848004846C9F8245039F014F8E2
:102EC000BAF80010D8F86480D8F8240088421ED0E0
:102ED000D8F82C508D42C8BF0D46D8F82810A9420A
:102EE000C8BF0D46D8F830108D42B8BF0D46A84275
:102EF0000DD008F13C0000211AF04EF94FF0FF30E0
:102F0000C8F848004046C8F8245038F0EDFF206863
:102F1000B0F1804F7FF420AD40F2E220C2F20040D9
:102F20000178182901D80131017040F2E320C2F282
:102F300000400178092901D8013101704FF080402B
:102F40000AE500BF2563256325630000000000003B
:102F5000FEE7000000000000FEE7000000000000A7
:102F6000FEE70000000000007047000000000000C5
:102F7000B0B52DED068B04460069012829D0002844
:102F800040F08E80BFEE009A94ED010A40F20800F6
:102F900040F20C05C2F20040C2F2004530EE090AD0
:102FA00094ED031A01682868091AB7EE00AA80EEAA
:102FB000011A02EE101A84ED010A31EE011AB8EE80
:102FC000C28AB4EE4A1AF1EE10FA48DA9FED391AC5
:102FD00056E0B7EE002A94ED010A40F2080040F2F4
:102FE0000C05C2F20040C2F2004530EE021A94ED28
:102FF000030A01682868091A84ED011A81EE003A73
:1030000004EE101A33EE033AB8EEC48AB4EE423A34
:10301000F1EE10FA0EDCB7EE009AF1EE040A39EE8A
:10302000430A55F0B9FE39EE402A286894ED011A9A
:1030300094ED030A03EE100AB4EE401AF1EE10FA12
:10304000B8EEC33AA8EE023ABCEEC32A12EE100A5A
:10305000208025DB0020206184ED010A20E0B8EE0D
:10306000000AF1EE040A31EE000A30EE0A0A55F0C9
:1030700093FE30EE090A286830EE0A1A94ED010A30
:1030800002EE100AB5EE400AF1EE10FAB8EEC22ACE
:10309000A8EE012ABCEEC21A11EE100A208002DD51
:1030A000BDEC068BB0BD0120206100206060BDEC4E
:1030B000068BB0BD0000000080B52DED028B40F204
:1030C000100040F20C01C2F20040C2F20041B7EE23
:1030D000008ADFED1A0A008891ED000A40F208012B
:1030E000B8EEC00AC2F2004102EE100A91ED001AD9
:1030F000B8EE422AB8EEC11A30EE422A31EE400A4A
:1031000082EE000A30EE080A55F046FE38EE400A1C
:10311000B6EE001A40F2C4200121C2F2004020EEB7
:10312000010A90ED031A016120EE010AB6EEC00A11
:1031300080ED010ABDEC028B80BD00BFCDCC4C3EC2
:1031400070B544F2004EC5F6020EDEF8283003F0EA
:103150000303032B01D1012070BD40F26C2CDEF87B
:103160000030C2F2004C23F08063CEF80030DCF86F
:103170000030DEF80020120123D5DCF80020D21A3E
:10318000022A00F2A980DEF80020120119D5DCF82D
:103190000020D21A022A00F29F80DEF800201201DD
:1031A0000FD5DCF80020D21A022A00F29580DEF852
:1031B0000020120105D5DCF80020D21A022AD8D945
:1031C0008AE0DEF82820C66890E8380022F47C32D5
:1031D000012942EA0332A4F101036FF35F234FF4A4
:1031E0007E4404EB4524CEF82820A4B24FF0FE45DF
:1031F00004EB03024FF4FE03046903EB064303F4FC
:10320000FE0305EB04641A4404F0FE431A44CEF8AE
:103210003820DEF82C20436922F0C00242EA030283
:10322000CEF82C20DEF82C20836922F0200242EA1E
:103230000302CEF82C20DEF82C204FF6F87322F093
:103240001002CEF82C20DEF83C20C06922EA0302EE
:1032500042EAC000CEF83C004FF40012DEF82C0029
:1032600008BF4FF4801240F010000029CEF82C0067
:1032700008BF4FF40022DEF82C001043CEF82C00DB
:10328000DEF8000040F08060CEF80000DCF80000BE
:10329000DEF80010090121D4DCF80010091A022917
:1032A0001AD8DEF80010090118D4DCF80010091A49
:1032B000022911D8DEF8001009010FD4DCF8001043
:1032C000091A022908D8DEF80010090106D4DCF832
:1032D0000010091A0329DBD3032070BD002070BD44
:1032E00070B544F2004EC5F6020EDEF8283003F049
:1032F0000303032B01D1012070BD40F26C2CDEF8DA
:103300000030C2F2004C23F08053CEF80030DCF8DD
:103310000030DEF80020920023D5DCF80020D21A1D
:10332000022A00F2A980DEF80020920019D5DCF80C
:103330000020D21A022A00F29F80DEF800209200BC
:103340000FD5DCF80020D21A022A00F29580DEF8B0
:103350000020920005D5DCF80020D21A022AD8D924
:103360008AE0DEF82820C66890E8380022F07C72F7
:10337000012942EA0352A4F101036FF35F234FF4E2
:103380007E4404EB4524CEF82820A4B24FF0FE453D
:1033900004EB03024FF4FE03046903EB064303F45A
:1033A000FE0305EB04641A4404F0FE431A44CEF80D
:1033B0004020DEF82C20436922F4406242EA0302F6
:1033C000CEF82C20DEF82C20836922F4007242EA29
:1033D0000302CEF82C20DEF82C204FF6F87322F4EE
:1033E0008072CEF82C20DEF84420C06922EA030265
:1033F00042EAC000CEF844004FF08072DEF82C00A4
:1034000008BF4FF4000240F480700029CEF82C0071
:1034100008BF4FF48002DEF82C001043CEF82C00D9
:10342000DEF8000040F08050CEF80000DCF800002C
:10343000DEF80010890021D4DCF80010091A0229F6
:103440001AD8DEF80010890018D4DCF80010091A28
:10345000022911D8DEF8001089000FD4DCF8001022
:10346000091A022908D8DEF80010890006D4DCF811
:103470000010091A0329DBD3032070BD002070BDA2
:10348000704700000000000040F26C20C2F20040D3
:1034900001680131016070474EF6885042F2000C1D
:1034A000CEF20000C5F2002C016841F47001016009
:1034B000DCF8000000F00F00062806D8DCF8000059
:1034C000072161F30300CCF8000044F200404EF6FF
:1034D0007F52C5F60200CEF6F622016841F00101E6
:1034E00001600021016103681A400260DCF80020DD
:1034F000120706D5DCF80020072363F30302CCF89B
:10350000002040F200228161C161C0F2022201620A
:1035100082620022C0F2FF12C26240F28022C0F238
:103520000112026341638263C16302644164026801
:1035300022F480220260016641F20000C5F60040DC
:103540000068B1EB507F05D148F208100121C5F2A7
:103550000010016044F2000043F2D201C5F20020E5
:10356000016070470000000040F2E820C2F2004015
:10357000FFF7BAB90000000040F23430C2F2004058
:10358000FFF7B2B90000000070B581B041F6180C29
:103590000023C5F6020C4FF0080E4FF40022002461
:1035A000002109E02D06072C4FEA410104F1010436
:1035B00041EAD57180F0EA86CCF800E0ADF802303F
:1035C000BDF80250072D25D8BDF802500135ADF8E1
:1035D0000250BDF80250072D1CD8BDF8025001352D
:1035E000ADF80250BDF80250072D9FBFBDF8025044
:1035F0000135ADF80250BDF8025098BF072D09D82B
:10360000BDF802500135ADF80250BDF80250082D4A
:10361000DAD300BFADF80230BDF80250072D25D82F
:10362000BDF802500135ADF80250BDF80250072D2B
:103630001CD8BDF802500135ADF80250BDF802505B
:10364000072D9FBFBDF802500135ADF80250BDF8FF
:10365000025098BF072D09D8BDF802500135ADF8CA
:103660000250BDF80250082DDAD300BFADF8023089
:10367000BDF80250072D25D8BDF802500135ADF830
:103680000250BDF80250072D1CD8BDF8025001357C
:10369000ADF80250BDF80250072D9FBFBDF8025093
:1036A0000135ADF80250BDF8025098BF072D09D87A
:1036B000BDF802500135ADF80250BDF80250082D9A
:1036C000DAD300BFADF80230BDF80250072D25D87F
:1036D000BDF802500135ADF80250BDF80250072D7B
:1036E0001CD8BDF802500135ADF80250BDF80250AB
:1036F000072D9FBFBDF802500135ADF80250BDF84F
:10370000025098BF072D09D8BDF802500135ADF819
:103710000250BDF80250082DDAD300BFADF80230D8
:10372000BDF80250072D25D8BDF802500135ADF87F
:103730000250BDF80250072D1CD8BDF802500135CB
:10374000ADF80250BDF80250072D9FBFBDF80250E2
:103750000135ADF80250BDF8025098BF072D09D8C9
:10376000BDF802500135ADF80250BDF80250082DE9
:10377000DAD300BFADF80230BDF80250072D25D8CE
:10378000BDF802500135ADF80250BDF80250072DCA
:103790001CD8BDF802500135ADF80250BDF80250FA
:1037A000072D9FBFBDF802500135ADF80250BDF89E
:1037B000025098BF072D09D8BDF802500135ADF869
:1037C0000250BDF80250082DDAD300BFADF8023028
:1037D000BDF80250072D25D8BDF802500135ADF8CF
:1037E0000250BDF80250072D1CD8BDF8025001351B
:1037F000ADF80250BDF80250072D9FBFBDF8025032
:103800000135ADF80250BDF8025098BF072D09D818
:10381000BDF802500135ADF80250BDF80250082D38
:10382000DAD300BFADF80230BDF80250072D25D81D
:10383000BDF802500135ADF80250BDF80250072D19
:103840001CD8BDF802500135ADF80250BDF8025049
:10385000072D9FBFBDF802500135ADF80250BDF8ED
:10386000025098BF072D09D8BDF802500135ADF8B8
:103870000250BDF80250082DDAD300BFADF8023077
:10388000BDF80250072D25D8BDF802500135ADF81E
:103890000250BDF80250072D1CD8BDF8025001356A
:1038A000ADF80250BDF80250072D9FBFBDF8025081
:1038B0000135ADF80250BDF8025098BF072D09D868
:1038C000BDF802500135ADF80250BDF80250082D88
:1038D000DAD300BFADF80230BDF80250072D25D86D
:1038E000BDF802500135ADF80250BDF80250072D69
:1038F0001CD8BDF802500135ADF80250BDF8025099
:10390000072D9FBFBDF802500135ADF80250BDF83C
:10391000025098BF072D09D8BDF802500135ADF807
:103920000250BDF80250082DDAD300BFADF80230C6
:10393000BDF80250072D25D8BDF802500135ADF86D
:103940000250BDF80250072D1CD8BDF802500135B9
:10395000ADF80250BDF80250072D9FBFBDF80250D0
:103960000135ADF80250BDF8025098BF072D09D8B7
:10397000BDF802500135ADF80250BDF80250082DD7
:10398000DAD300BFADF80230BDF80250072D25D8BC
:10399000BDF802500135ADF80250BDF80250072DB8
:1039A0001CD8BDF802500135ADF80250BDF80250E8
:1039B000072D9FBFBDF802500135ADF80250BDF88C
:1039C000025098BF072D09D8BDF802500135ADF857
:1039D0000250BDF80250082DDAD300BFADF8023016
:1039E000BDF80250072D25D8BDF802500135ADF8BD
:1039F0000250BDF80250072D1CD8BDF80250013509
:103A0000ADF80250BDF80250072D9FBFBDF802501F
:103A10000135ADF80250BDF8025098BF072D09D806
:103A2000BDF802500135ADF80250BDF80250082D26
:103A3000DAD300BFADF80230BDF80250072D25D80B
:103A4000BDF802500135ADF80250BDF80250072D07
:103A50001CD8BDF802500135ADF80250BDF8025037
:103A6000072D9FBFBDF802500135ADF80250BDF8DB
:103A7000025098BF072D09D8BDF802500135ADF8A6
:103A80000250BDF80250082DDAD300BFADF8023065
:103A9000BDF80250072D25D8BDF802500135ADF80C
:103AA0000250BDF80250072D1CD8BDF80250013558
:103AB000ADF80250BDF80250072D9FBFBDF802506F
:103AC0000135ADF80250BDF8025098BF072D09D856
:103AD000BDF802500135ADF80250BDF80250082D76
:103AE000DAD300BFADF80230BDF80250072D25D85B
:103AF000BDF802500135ADF80250BDF80250072D57
:103B00001CD8BDF802500135ADF80250BDF8025086
:103B1000072D9FBFBDF802500135ADF80250BDF82A
:103B2000025098BF072D09D8BDF802500135ADF8F5
:103B30000250BDF80250082DDAD300BFADF80230B4
:103B4000BDF80250072D25D8BDF802500135ADF85B
:103B50000250BDF80250072D1CD8BDF802500135A7
:103B6000ADF80250BDF80250072D9FBFBDF80250BE
:103B70000135ADF80250BDF8025098BF072D09D8A5
:103B8000BDF802500135ADF80250BDF80250082DC5
:103B9000DAD300BFADF80230BDF80250072D25D8AA
:103BA000BDF802500135ADF80250BDF80250072DA6
:103BB0001CD8BDF802500135ADF80250BDF80250D6
:103BC000072D9FBFBDF802500135ADF80250BDF87A
:103BD000025098BF072D09D8BDF802500135ADF845
:103BE0000250BDF80250082DDAD300BFADF8023004
:103BF000BDF80250072D25D8BDF802500135ADF8AB
:103C00000250BDF80250072D1CD8BDF802500135F6
:103C1000ADF80250BDF80250072D9FBFBDF802500D
:103C20000135ADF80250BDF8025098BF072D09D8F4
:103C3000BDF802500135ADF80250BDF80250082D14
:103C4000DAD300BFADF80230BDF80250072D25D8F9
:103C5000BDF802500135ADF80250BDF80250072DF5
:103C60001CD8BDF802500135ADF80250BDF8025025
:103C7000072D9FBFBDF802500135ADF80250BDF8C9
:103C8000025098BF072D09D8BDF802500135ADF894
:103C90000250BDF80250082DDAD300BF5CF8085C72
:103CA000CCF80020ADF80230BDF80260072E25D810
:103CB000BDF802600136ADF80260BDF80260072E63
:103CC0001CD8BDF802600136ADF80260BDF8026094
:103CD000072E9FBFBDF802600136ADF80260BDF847
:103CE000026098BF072E09D8BDF802600136ADF812
:103CF0000260BDF80260082EDAD300BFADF80230D2
:103D0000BDF80260072E25D8BDF802600136ADF877
:103D10000260BDF80260072E1CD8BDF802600136B3
:103D2000ADF80260BDF80260072E9FBFBDF80260CB
:103D30000136ADF80260BDF8026098BF072E09D8C1
:103D4000BDF802600136ADF80260BDF80260082ED1
:103D5000DAD300BFADF80230BDF80260072E25D8D7
:103D6000BDF802600136ADF80260BDF80260072EB2
:103D70001CD8BDF802600136ADF80260BDF80260E3
:103D8000072E9FBFBDF802600136ADF80260BDF896
:103D9000026098BF072E09D8BDF802600136ADF861
:103DA0000260BDF80260082EDAD300BFADF8023021
:103DB000BDF80260072E25D8BDF802600136ADF8C7
:103DC0000260BDF80260072E1CD8BDF80260013603
:103DD000ADF80260BDF80260072E9FBFBDF802601B
:103DE0000136ADF80260BDF8026098BF072E09D811
:103DF000BDF802600136ADF80260BDF80260082E21
:103E0000DAD300BFADF80230BDF80260072E25D826
:103E1000BDF802600136ADF80260BDF80260072E01
:103E20001CD8BDF802600136ADF80260BDF8026032
:103E3000072E9FBFBDF802600136ADF80260BDF8E5
:103E4000026098BF072E09D8BDF802600136ADF8B0
:103E50000260BDF80260082EDAD300BFADF8023070
:103E6000BDF80260072E25D8BDF802600136ADF816
:103E70000260BDF80260072E1CD8BDF80260013652
:103E8000ADF80260BDF80260072E9FBFBDF802606A
:103E90000136ADF80260BDF8026098BF072E09D860
:103EA000BDF802600136ADF80260BDF80260082E70
:103EB000DAD300BFADF80230BDF80260072E25D876
:103EC000BDF802600136ADF80260BDF80260072E51
:103ED0001CD8BDF802600136ADF80260BDF8026082
:103EE000072E9FBFBDF802600136ADF80260BDF835
:103EF000026098BF072E09D8BDF802600136ADF800
:103F00000260BDF80260082EDAD300BFADF80230BF
:103F1000BDF80260072E25D8BDF802600136ADF865
:103F20000260BDF80260072E1CD8BDF802600136A1
:103F3000ADF80260BDF80260072E9FBFBDF80260B9
:103F40000136ADF80260BDF8026098BF072E09D8AF
:103F5000BDF802600136ADF80260BDF80260082EBF
:103F6000DAD300BFADF80230BDF80260072E25D8C5
:103F7000BDF802600136ADF80260BDF80260072EA0
:103F80001CD8BDF802600136ADF80260BDF80260D1
:103F9000072E9FBFBDF802600136ADF80260BDF884
:103FA000026098BF072E09D8BDF802600136ADF84F
:103FB0000260BDF80260082EDAD300BFADF802300F
:103FC000BDF80260072E25D8BDF802600136ADF8B5
:103FD0000260BDF80260072E1CD8BDF802600136F1
:103FE000ADF80260BDF80260072E9FBFBDF8026009
:103FF0000136ADF80260BDF8026098BF072E09D8FF
:10400000BDF802600136ADF80260BDF80260082E0E
:10401000DAD300BFADF80230BDF80260072E25D814
:10402000BDF802600136ADF80260BDF80260072EEF
:104030001CD8BDF802600136ADF80260BDF8026020
:10404000072E9FBFBDF802600136ADF80260BDF8D3
:10405000026098BF072E09D8BDF802600136ADF89E
:104060000260BDF80260082EDAD300BFADF802305E
:10407000BDF80260072E25D8BDF802600136ADF804
:104080000260BDF80260072E1CD8BDF80260013640
:10409000ADF80260BDF80260072E9FBFBDF8026058
:1040A0000136ADF80260BDF8026098BF072E09D84E
:1040B000BDF802600136ADF80260BDF80260082E5E
:1040C000DAD300BFADF80230BDF80260072E25D864
:1040D000BDF802600136ADF80260BDF80260072E3F
:1040E0001CD8BDF802600136ADF80260BDF8026070
:1040F000072E9FBFBDF802600136ADF80260BDF823
:10410000026098BF072E09D8BDF802600136ADF8ED
:104110000260BDF80260082EDAD300BFADF80230AD
:10412000BDF80260072E25D8BDF802600136ADF853
:104130000260BDF80260072E1CD8BDF8026001368F
:10414000ADF80260BDF80260072E9FBFBDF80260A7
:104150000136ADF80260BDF8026098BF072E09D89D
:10416000BDF802600136ADF80260BDF80260082EAD
:10417000DAD300BFADF80230BDF80260072E25D8B3
:10418000BDF802600136ADF80260BDF80260072E8E
:104190001CD8BDF802600136ADF80260BDF80260BF
:1041A000072E9FBFBDF802600136ADF80260BDF872
:1041B000026098BF072E09D8BDF802600136ADF83D
:1041C0000260BDF80260082EDAD300BFADF80230FD
:1041D000BDF80260072E25D8BDF802600136ADF8A3
:1041E0000260BDF80260072E1CD8BDF802600136DF
:1041F000ADF80260BDF80260072E9FBFBDF80260F7
:104200000136ADF80260BDF8026098BF072E09D8EC
:10421000BDF802600136ADF80260BDF80260082EFC
:10422000DAD300BFADF80230BDF80260072E25D802
:10423000BDF802600136ADF80260BDF80260072EDD
:104240001CD8BDF802600136ADF80260BDF802600E
:10425000072E9FBFBDF802600136ADF80260BDF8C1
:10426000026098BF072E09D8BDF802600136ADF88C
:104270000260BDF80260082EDAD300BFADF802304C
:10428000BDF80260072E25D8BDF802600136ADF8F2
:104290000260BDF80260072E1CD8BDF8026001362E
:1042A000ADF80260BDF80260072E9FBFBDF8026046
:1042B0000136ADF80260BDF8026098BF072E09D83C
:1042C000BDF802600136ADF80260BDF80260082E4C
:1042D000DAD300BFADF80230BDF80260072E25D852
:1042E000BDF802600136ADF80260BDF80260072E2D
:1042F0001CD8BDF802600136ADF80260BDF802605E
:10430000072E9FBFBDF802600136ADF80260BDF810
:10431000026098BF072E09D8BDF802600136ADF8DB
:104320000260BDF80260082EDAD300BFADF802309B
:10433000BDF80260072E3FF635A9BDF802600136D0
:10434000ADF80260BDF80260072E3FF62BA9BDF85C
:1043500002600136ADF80260BDF80260072E9FBF13
:10436000BDF802600136ADF80260BDF8026098BF8A
:10437000072E3FF617A9BDF802600136ADF80260BE
:10438000BDF80260082ED8D3FFF70CB901284FF40E
:104390000020CCF800004FF0000041F0AA85ADF8F5
:1043A0000200BDF80220072A24D8BDF802200132FD
:1043B000ADF80220BDF80220072A1BD8BDF8022064
:1043C0000132ADF80220BDF80220072A9FBFBDF8D8
:1043D00002200132ADF80220BDF8022098BF072A62
:1043E00008D8BDF802200132ADF80220BDF8022045
:1043F000082ADAD3ADF80200BDF80200072824D855
:10440000BDF802000130ADF80200BDF80200072837
:104410001BD8BDF802000130ADF80200BDF8020063
:1044200007289FBFBDF802000130ADF80200BDF8BB
:10443000020098BF072808D8BDF802000130ADF887
:104440000200BDF802000828DAD30020ADF802000F
:10445000BDF80220072A24D8BDF802200132ADF8A9
:104460000220BDF80220072A1BD8BDF80220013225
:10447000ADF80220BDF80220072A9FBFBDF8022038
:104480000132ADF80220BDF8022098BF072A08D8F3
:10449000BDF802200132ADF80220BDF80220082A42
:1044A000DAD3ADF80200BDF80200072824D8BDF821
:1044B00002000130ADF80200BDF8020007281BD849
:1044C000BDF802000130ADF80200BDF80200072877
:1044D0009FBFBDF802000130ADF80200BDF8020038
:1044E00098BF072808D8BDF802000130ADF80200D7
:1044F000BDF802000828DAD30020ADF80200BDF8AC
:104500000220072A24D8BDF802200132ADF802208B
:10451000BDF80220072A1BD8BDF802200132ADF8F1
:104520000220BDF80220072A9FBFBDF802200132F9
:10453000ADF80220BDF8022098BF072A08D8BDF8C0
:1045400002200132ADF80220BDF80220082ADAD399
:10455000ADF80200BDF80200072824D8BDF802001B
:104560000130ADF80200BDF8020007281BD8BDF8E5
:1045700002000130ADF80200BDF8020007289FBF1D
:10458000BDF802000130ADF80200BDF8020098BF8E
:10459000072808D8BDF802000130ADF80200BDF8C8
:1045A00002000828DAD30020ADF80200BDF802208E
:1045B000072A24D8BDF802200132ADF80220BDF848
:1045C0000220072A1BD8BDF802200132ADF80220D4
:1045D000BDF80220072A9FBFBDF802200132ADF8C6
:1045E0000220BDF8022098BF072A08D8BDF8022093
:1045F0000132ADF80220BDF80220082ADAD3ADF866
:104600000200BDF80200072824D8BDF802000130DE
:10461000ADF80200BDF8020007281BD8BDF8020063
:104620000130ADF80200BDF8020007289FBFBDF8B9
:1046300002000130ADF80200BDF8020098BF072863
:1046400008D8BDF802000130ADF80200BDF8020044
:104650000828DAD30020ADF80200BDF80220072AAE
:1046600024D8BDF802200132ADF80220BDF80220A6
:10467000072A1BD8BDF802200132ADF80220BDF890
:104680000220072A9FBFBDF802200132ADF80220A8
:10469000BDF8022098BF072A08D8BDF802200132D1
:1046A000ADF80220BDF80220082ADAD3ADF80200E6
:1046B000BDF80200072824D8BDF802000130ADF88B
:1046C0000200BDF8020007281BD8BDF80200013027
:1046D000ADF80200BDF8020007289FBFBDF8020038
:1046E0000130ADF80200BDF8020098BF072808D8D5
:1046F000BDF802000130ADF80200BDF80200082844
:10470000DAD30020ADF80200BDF80220072A24D831
:10471000BDF802200132ADF80220BDF80220072AC0
:104720001BD8BDF802200132ADF80220BDF80220EE
:10473000072A9FBFBDF802200132ADF80220BDF864
:10474000022098BF072A08D8BDF802200132ADF830
:104750000220BDF80220082ADAD3ADF80200BDF825
:104760000200072824D8BDF802000130ADF802008D
:10477000BDF8020007281BD8BDF802000130ADF8D3
:104780000200BDF8020007289FBFBDF802000130FB
:10479000ADF80200BDF8020098BF072808D8BDF8A0
:1047A00002000130ADF80200BDF802000828DAD39B
:1047B0000020ADF80200BDF80220072A24D8BDF879
:1047C00002200132ADF80220BDF80220072A1BD8D2
:1047D000BDF802200132ADF80220BDF80220072A00
:1047E0009FBFBDF802200132ADF80220BDF80220C3
:1047F00098BF072A08D8BDF802200132ADF8022080
:10480000BDF80220082ADAD3ADF80200BDF8020094
:10481000072824D8BDF802000130ADF80200BDF829
:10482000020007281BD8BDF802000130ADF80200D5
:10483000BDF8020007289FBFBDF802000130ADF8A7
:104840000200BDF8020098BF072808D8BDF8020092
:104850000130ADF80200BDF802000828DAD30020CC
:10486000ADF80200BDF80220072A24D8BDF80220C6
:104870000132ADF80220BDF80220072A1BD8BDF88E
:1048800002200132ADF80220BDF80220072A9FBFA6
:10489000BDF802200132ADF80220BDF8022098BF19
:1048A000072A08D8BDF802200132ADF80220BDF871
:1048B0000220082ADAD3ADF80200BDF8020007286A
:1048C00024D8BDF802000130ADF80200BDF80200A6
:1048D00007281BD8BDF802000130ADF80200BDF872
:1048E000020007289FBFBDF802000130ADF80200AA
:1048F000BDF8020098BF072808D8BDF802000130B3
:10490000ADF80200BDF802000828DAD30020ADF8A7
:104910000200BDF80220072A24D8BDF80220013287
:10492000ADF80220BDF80220072A1BD8BDF80220EE
:104930000132ADF80220BDF80220072A9FBFBDF862
:1049400002200132ADF80220BDF8022098BF072AEC
:1049500008D8BDF802200132ADF80220BDF80220CF
:10496000082ADAD3ADF80200BDF80200072824D8DF
:10497000BDF802000130ADF80200BDF802000728C2
:104980001BD8BDF802000130ADF80200BDF80200EE
:1049900007289FBFBDF802000130ADF80200BDF846
:1049A000020098BF072808D8BDF802000130ADF812
:1049B0000200BDF802000828DAD30020ADF802009A
:1049C000BDF80220072A24D8BDF802200132ADF834
:1049D0000220BDF80220072A1BD8BDF802200132B0
:1049E000ADF80220BDF80220072A9FBFBDF80220C3
:1049F0000132ADF80220BDF8022098BF072A08D87E
:104A0000BDF802200132ADF80220BDF80220082ACC
:104A1000DAD3ADF80200BDF80200072824D8BDF8AB
:104A200002000130ADF80200BDF8020007281BD8D3
:104A3000BDF802000130ADF80200BDF80200072801
:104A40009FBFBDF802000130ADF80200BDF80200C2
:104A500098BF072808D8BDF802000130ADF8020061
:104A6000BDF802000828DAD34FF40000CCF80000AB
:104A70000020ADF80200BDF80220072A24D8BDF8B6
:104A800002200132ADF80220BDF80220072A1BD80F
:104A9000BDF802200132ADF80220BDF80220072A3D
:104AA0009FBFBDF802200132ADF80220BDF8022000
:104AB00098BF072A08D8BDF802200132ADF80220BD
:104AC000BDF80220082ADAD3ADF80200BDF80200D2
:104AD000072824D8BDF802000130ADF80200BDF867
:104AE000020007281BD8BDF802000130ADF8020013
:104AF000BDF8020007289FBFBDF802000130ADF8E5
:104B00000200BDF8020098BF072808D8BDF80200CF
:104B10000130ADF80200BDF802000828DAD3002009
:104B2000ADF80200BDF80220072A24D8BDF8022003
:104B30000132ADF80220BDF80220072A1BD8BDF8CB
:104B400002200132ADF80220BDF80220072A9FBFE3
:104B5000BDF802200132ADF80220BDF8022098BF56
:104B6000072A08D8BDF802200132ADF80220BDF8AE
:104B70000220082ADAD3ADF80200BDF802000728A7
:104B800024D8BDF802000130ADF80200BDF80200E3
:104B900007281BD8BDF802000130ADF80200BDF8AF
:104BA000020007289FBFBDF802000130ADF80200E7
:104BB000BDF8020098BF072808D8BDF802000130F0
:104BC000ADF80200BDF802000828DAD30020ADF8E5
:104BD0000200BDF80220072A24D8BDF802200132C5
:104BE000ADF80220BDF80220072A1BD8BDF802202C
:104BF0000132ADF80220BDF80220072A9FBFBDF8A0
:104C000002200132ADF80220BDF8022098BF072A29
:104C100008D8BDF802200132ADF80220BDF802200C
:104C2000082ADAD3ADF80200BDF80200072824D81C
:104C3000BDF802000130ADF80200BDF802000728FF
:104C40001BD8BDF802000130ADF80200BDF802002B
:104C500007289FBFBDF802000130ADF80200BDF883
:104C6000020098BF072808D8BDF802000130ADF84F
:104C70000200BDF802000828DAD30020ADF80200D7
:104C8000BDF80220072A24D8BDF802200132ADF871
:104C90000220BDF80220072A1BD8BDF802200132ED
:104CA000ADF80220BDF80220072A9FBFBDF8022000
:104CB0000132ADF80220BDF8022098BF072A08D8BB
:104CC000BDF802200132ADF80220BDF80220082A0A
:104CD000DAD3ADF80200BDF80200072824D8BDF8E9
:104CE00002000130ADF80200BDF8020007281BD811
:104CF000BDF802000130ADF80200BDF8020007283F
:104D00009FBFBDF802000130ADF80200BDF80200FF
:104D100098BF072808D8BDF802000130ADF802009E
:104D2000BDF802000828DAD30020ADF80200BDF873
:104D30000220072A24D8BDF802200132ADF8022053
:104D4000BDF80220072A1BD8BDF802200132ADF8B9
:104D50000220BDF80220072A9FBFBDF802200132C1
:104D6000ADF80220BDF8022098BF072A08D8BDF888
:104D700002200132ADF80220BDF80220082ADAD361
:104D8000ADF80200BDF80200072824D8BDF80200E3
:104D90000130ADF80200BDF8020007281BD8BDF8AD
:104DA00002000130ADF80200BDF8020007289FBFE5
:104DB000BDF802000130ADF80200BDF8020098BF56
:104DC000072808D8BDF802000130ADF80200BDF890
:104DD00002000828DAD30020ADF80200BDF8022056
:104DE000072A24D8BDF802200132ADF80220BDF810
:104DF0000220072A1BD8BDF802200132ADF802209C
:104E0000BDF80220072A9FBFBDF802200132ADF88D
:104E10000220BDF8022098BF072A08D8BDF802205A
:104E20000132ADF80220BDF80220082ADAD3ADF82D
:104E30000200BDF80200072824D8BDF802000130A6
:104E4000ADF80200BDF8020007281BD8BDF802002B
:104E50000130ADF80200BDF8020007289FBFBDF881
:104E600002000130ADF80200BDF8020098BF07282B
:104E700008D8BDF802000130ADF80200BDF802000C
:104E80000828DAD30020ADF80200BDF80220072A76
:104E900024D8BDF802200132ADF80220BDF802206E
:104EA000072A1BD8BDF802200132ADF80220BDF858
:104EB0000220072A9FBFBDF802200132ADF8022070
:104EC000BDF8022098BF072A08D8BDF80220013299
:104ED000ADF80220BDF80220082ADAD3ADF80200AE
:104EE000BDF80200072824D8BDF802000130ADF853
:104EF0000200BDF8020007281BD8BDF802000130EF
:104F0000ADF80200BDF8020007289FBFBDF80200FF
:104F10000130ADF80200BDF8020098BF072808D89C
:104F2000BDF802000130ADF80200BDF8020008280B
:104F3000DAD30020ADF80200BDF80220072A24D8F9
:104F4000BDF802200132ADF80220BDF80220072A88
:104F50001BD8BDF802200132ADF80220BDF80220B6
:104F6000072A9FBFBDF802200132ADF80220BDF82C
:104F7000022098BF072A08D8BDF802200132ADF8F8
:104F80000220BDF80220082ADAD3ADF80200BDF8ED
:104F90000200072824D8BDF802000130ADF8020055
:104FA000BDF8020007281BD8BDF802000130ADF89B
:104FB0000200BDF8020007289FBFBDF802000130C3
:104FC000ADF80200BDF8020098BF072808D8BDF868
:104FD00002000130ADF80200BDF802000828DAD363
:104FE0000020ADF80200BDF80220072A24D8BDF841
:104FF00002200132ADF80220BDF80220072A1BD89A
:10500000BDF802200132ADF80220BDF80220072AC7
:105010009FBFBDF802200132ADF80220BDF802208A
:1050200098BF072A08D8BDF802200132ADF8022047
:10503000BDF80220082ADAD3ADF80200BDF802005C
:10504000072824D8BDF802000130ADF80200BDF8F1
:10505000020007281BD8BDF802000130ADF802009D
:10506000BDF8020007289FBFBDF802000130ADF86F
:105070000200BDF8020098BF072808D8BDF802005A
:105080000130ADF80200BDF802000828DAD3002094
:10509000ADF80200BDF80220072A24D8BDF802208E
:1050A0000132ADF80220BDF80220072A1BD8BDF856
:1050B00002200132ADF80220BDF80220072A9FBF6E
:1050C000BDF802200132ADF80220BDF8022098BFE1
:1050D000072A08D8BDF802200132ADF80220BDF839
:1050E0000220082ADAD3ADF80200BDF80200072832
:1050F00024D8BDF802000130ADF80200BDF802006E
:1051000007281BD8BDF802000130ADF80200BDF839
:10511000020007289FBFBDF802000130ADF8020071
:10512000BDF8020098BF072808D8BDF8020001307A
:10513000ADF80200BDF802000828DAD30820CCF848
:1051400000000020ADF80200BDF80220072A24D894
:10515000BDF802200132ADF80220BDF80220072A76
:105160001BD8BDF802200132ADF80220BDF80220A4
:10517000072A9FBFBDF802200132ADF80220BDF81A
:10518000022098BF072A08D8BDF802200132ADF8E6
:105190000220BDF80220082ADAD3ADF80200BDF8DB
:1051A0000200072824D8BDF802000130ADF8020043
:1051B000BDF8020007281BD8BDF802000130ADF889
:1051C0000200BDF8020007289FBFBDF802000130B1
:1051D000ADF80200BDF8020098BF072808D8BDF856
:1051E00002000130ADF80200BDF802000828DAD351
:1051F0000020ADF80200BDF80220072A24D8BDF82F
:1052000002200132ADF80220BDF80220072A1BD887
:10521000BDF802200132ADF80220BDF80220072AB5
:105220009FBFBDF802200132ADF80220BDF8022078
:1052300098BF072A08D8BDF802200132ADF8022035
:10524000BDF80220082ADAD3ADF80200BDF802004A
:10525000072824D8BDF802000130ADF80200BDF8DF
:10526000020007281BD8BDF802000130ADF802008B
:10527000BDF8020007289FBFBDF802000130ADF85D
:105280000200BDF8020098BF072808D8BDF8020048
:105290000130ADF80200BDF802000828DAD3002082
:1052A000ADF80200BDF80220072A24D8BDF802207C
:1052B0000132ADF80220BDF80220072A1BD8BDF844
:1052C00002200132ADF80220BDF80220072A9FBF5C
:1052D000BDF802200132ADF80220BDF8022098BFCF
:1052E000072A08D8BDF802200132ADF80220BDF827
:1052F0000220082ADAD3ADF80200BDF80200072820
:1053000024D8BDF802000130ADF80200BDF802005B
:1053100007281BD8BDF802000130ADF80200BDF827
:10532000020007289FBFBDF802000130ADF802005F
:10533000BDF8020098BF072808D8BDF80200013068
:10534000ADF80200BDF802000828DAD30020ADF85D
:105350000200BDF80220072A24D8BDF8022001323D
:10536000ADF80220BDF80220072A1BD8BDF80220A4
:105370000132ADF80220BDF80220072A9FBFBDF818
:1053800002200132ADF80220BDF8022098BF072AA2
:1053900008D8BDF802200132ADF80220BDF8022085
:1053A000082ADAD3ADF80200BDF80200072824D895
:1053B000BDF802000130ADF80200BDF80200072878
:1053C0001BD8BDF802000130ADF80200BDF80200A4
:1053D00007289FBFBDF802000130ADF80200BDF8FC
:1053E000020098BF072808D8BDF802000130ADF8C8
:1053F0000200BDF802000828DAD30020ADF8020050
:10540000BDF80220072A24D8BDF802200132ADF8E9
:105410000220BDF80220072A1BD8BDF80220013265
:10542000ADF80220BDF80220072A9FBFBDF8022078
:105430000132ADF80220BDF8022098BF072A08D833
:10544000BDF802200132ADF80220BDF80220082A82
:10545000DAD3ADF80200BDF80200072824D8BDF861
:1054600002000130ADF80200BDF8020007281BD889
:10547000BDF802000130ADF80200BDF802000728B7
:105480009FBFBDF802000130ADF80200BDF8020078
:1054900098BF072808D8BDF802000130ADF8020017
:1054A000BDF802000828DAD30020ADF80200BDF8EC
:1054B0000220072A24D8BDF802200132ADF80220CC
:1054C000BDF80220072A1BD8BDF802200132ADF832
:1054D0000220BDF80220072A9FBFBDF8022001323A
:1054E000ADF80220BDF8022098BF072A08D8BDF801
:1054F00002200132ADF80220BDF80220082ADAD3DA
:10550000ADF80200BDF80200072824D8BDF802005B
:105510000130ADF80200BDF8020007281BD8BDF825
:1055200002000130ADF80200BDF8020007289FBF5D
:10553000BDF802000130ADF80200BDF8020098BFCE
:10554000072808D8BDF802000130ADF80200BDF808
:1055500002000828DAD30020ADF80200BDF80220CE
:10556000072A24D8BDF802200132ADF80220BDF888
:105570000220072A1BD8BDF802200132ADF8022014
:10558000BDF80220072A9FBFBDF802200132ADF806
:105590000220BDF8022098BF072A08D8BDF80220D3
:1055A0000132ADF80220BDF80220082ADAD3ADF8A6
:1055B0000200BDF80200072824D8BDF8020001301F
:1055C000ADF80200BDF8020007281BD8BDF80200A4
:1055D0000130ADF80200BDF8020007289FBFBDF8FA
:1055E00002000130ADF80200BDF8020098BF0728A4
:1055F00008D8BDF802000130ADF80200BDF8020085
:105600000828DAD30020ADF80200BDF80220072AEE
:1056100024D8BDF802200132ADF80220BDF80220E6
:10562000072A1BD8BDF802200132ADF80220BDF8D0
:105630000220072A9FBFBDF802200132ADF80220E8
:10564000BDF8022098BF072A08D8BDF80220013211
:10565000ADF80220BDF80220082ADAD3ADF8020026
:10566000BDF80200072824D8BDF802000130ADF8CB
:105670000200BDF8020007281BD8BDF80200013067
:10568000ADF80200BDF8020007289FBFBDF8020078
:105690000130ADF80200BDF8020098BF072808D815
:1056A000BDF802000130ADF80200BDF80200082884
:1056B000DAD30020ADF80200BDF80220072A24D872
:1056C000BDF802200132ADF80220BDF80220072A01
:1056D0001BD8BDF802200132ADF80220BDF802202F
:1056E000072A9FBFBDF802200132ADF80220BDF8A5
:1056F000022098BF072A08D8BDF802200132ADF871
:105700000220BDF80220082ADAD3ADF80200BDF865
:105710000200072824D8BDF802000130ADF80200CD
:10572000BDF8020007281BD8BDF802000130ADF813
:105730000200BDF8020007289FBFBDF8020001303B
:10574000ADF80200BDF8020098BF072808D8BDF8E0
:1057500002000130ADF80200BDF802000828DAD3DB
:105760000020ADF80200BDF80220072A24D8BDF8B9
:1057700002200132ADF80220BDF80220072A1BD812
:10578000BDF802200132ADF80220BDF80220072A40
:105790009FBFBDF802200132ADF80220BDF8022003
:1057A00098BF072A08D8BDF802200132ADF80220C0
:1057B000BDF80220082ADAD3ADF80200BDF80200D5
:1057C000072824D8BDF802000130ADF80200BDF86A
:1057D000020007281BD8BDF802000130ADF8020016
:1057E000BDF8020007289FBFBDF802000130ADF8E8
:1057F0000200BDF8020098BF072808D8BDF80200D3
:105800000130ADF80200BDF802000828DAD34FF4E9
:105810000020CCF800008020CCF800000020ADF87B
:105820000200BDF80220072A24D8BDF80220013268
:10583000ADF80220BDF80220072A1BD8BDF80220CF
:105840000132ADF80220BDF80220072A9FBFBDF843
:1058500002200132ADF80220BDF8022098BF072ACD
:1058600008D8BDF802200132ADF80220BDF80220B0
:10587000082ADAD3ADF80200BDF80200072824D8C0
:10588000BDF802000130ADF80200BDF802000728A3
:105890001BD8BDF802000130ADF80200BDF80200CF
:1058A00007289FBFBDF802000130ADF80200BDF827
:1058B000020098BF072808D8BDF802000130ADF8F3
:1058C0000200BDF802000828DAD30020ADF802007B
:1058D000BDF80220072A24D8BDF802200132ADF815
:1058E0000220BDF80220072A1BD8BDF80220013291
:1058F000ADF80220BDF80220072A9FBFBDF80220A4
:105900000132ADF80220BDF8022098BF072A08D85E
:10591000BDF802200132ADF80220BDF80220082AAD
:10592000DAD3ADF80200BDF80200072824D8BDF88C
:1059300002000130ADF80200BDF8020007281BD8B4
:10594000BDF802000130ADF80200BDF802000728E2
:105950009FBFBDF802000130ADF80200BDF80200A3
:1059600098BF072808D8BDF802000130ADF8020042
:10597000BDF802000828DAD30020ADF80200BDF817
:105980000220072A24D8BDF802200132ADF80220F7
:10599000BDF80220072A1BD8BDF802200132ADF85D
:1059A0000220BDF80220072A9FBFBDF80220013265
:1059B000ADF80220BDF8022098BF072A08D8BDF82C
:1059C00002200132ADF80220BDF80220082ADAD305
:1059D000ADF80200BDF80200072824D8BDF8020087
:1059E0000130ADF80200BDF8020007281BD8BDF851
:1059F00002000130ADF80200BDF8020007289FBF89
:105A0000BDF802000130ADF80200BDF8020098BFF9
:105A1000072808D8BDF802000130ADF80200BDF833
:105A200002000828DAD30020ADF80200BDF80220F9
:105A3000072A24D8BDF802200132ADF80220BDF8B3
:105A40000220072A1BD8BDF802200132ADF802203F
:105A5000BDF80220072A9FBFBDF802200132ADF831
:105A60000220BDF8022098BF072A08D8BDF80220FE
:105A70000132ADF80220BDF80220082ADAD3ADF8D1
:105A80000200BDF80200072824D8BDF8020001304A
:105A9000ADF80200BDF8020007281BD8BDF80200CF
:105AA0000130ADF80200BDF8020007289FBFBDF825
:105AB00002000130ADF80200BDF8020098BF0728CF
:105AC00008D8BDF802000130ADF80200BDF80200B0
:105AD0000828DAD30020ADF80200BDF80220072A1A
